:100000000C9434000C9451000C9451000C94510049
:100010000C9451000C9451000C9451000C94D70096
:100020000C9451000C9451000C9451000C9451000C
:100030000C9451000C9451000C9451000C945100FC
:100040000C9451000C9451000C9451000C945100EC
:100050000C9451000C9451000C9451000C945100DC
:100060000C9451000C94510011241FBECFEFD8E026
:10007000DEBFCDBF11E0A0E0B1E0EEEFF2E002C0E4
:1000800005900D92AC31B107D9F721E0ACE1B1E0B8
:1000900001C01D92A632B207E1F70E9431010C9413
:1000A0007D010C94000082E08093B00094E0909376
:1000B000B1008093700089EF8093B3000895CF93CF
:1000C000DF9300D000D0CDB7DEB78FB7F894209182
:1000D0001C0130911D0140911E0150911F01298387
:1000E0003A834B835C838FBF69817A818B819C814A
:1000F0000F900F900F900F90DF91CF910895E4E64D
:10010000F0E080818F7B8083E0E7F0E08081826097
:1001100080830895E0E7F0E080818D7F8083E4E6CE
:10012000F0E080818064808308958FB7F894109206
:100130001C0110921D0110921E0110921F018FBF11
:100140000895462F572FBC012FB7F89480911C01BA
:1001500090911D01A0911E01B0911F01840F951F68
:10016000A61FB71F80931C0190931D01A0931E0131
:10017000B0931F012FBF0895462F572FBC012FB7F3
:10018000F89480911C0190911D01A0911E01B091E5
:100190001F01841B950BA60BB70B80931C0190933A
:1001A0001D01A0931E01B0931F012FBF08951F9240
:1001B0001FB61F9211248F939F93AF93BF9380918B
:1001C0001C0190911D01A0911E01B0911F0101968B
:1001D000A11DB11D80931C0190931D01A0931E01D0
:1001E000B0931F01BF91AF919F918F911F901FBE40
:1001F0001F901895CF93C82F8A3019F48DE00E9474
:10020000FA008091C00085FFFCCFC093C60080E05B
:1002100090E0CF9108958091C00087FFFCCF80913E
:10022000C60090E008951092C50083E38093C40057
:10023000E0ECF0E080818D7F808386E08093C200D7
:1002400088E18093C10008950E941301E0E2F1E08B
:100250008EE091E09383828380E091E091838083BC
:100260000895CDB7DEB728970FB6F894DEBF0FBE5E
:10027000CDBF229A219A239A579856985F9A5E9AF0
:100280000E94530078940E94240119821A821B82D2
:100290001C822A9A299811E001E04F9B29C02B9AD1
:1002A0000E945F006D837E838F83988789819A8106
:1002B000AB81BC812D813E814F815885281B390B34
:1002C0004A0B5B0BDA01C901893B9B40A105B105D3
:1002D00020F3112379F02A98299A10270E945F00B1
:1002E000462F572FBC0149835A836B837C83D5CF1C
:0E02F0002B98D6CF2A9A2998F0CFF894FFCFFA
:1002FE00000000010000000000000B0100000000E3
:0C030E00000200000000FA0000000000E7
:00000001FF
